{
  "contractName": "Bounty",
  "abi": [
    {
      "constant": false,
      "inputs": [],
      "name": "renounceOwnership",
      "outputs": [],
      "payable": false,
      "stateMutability": "nonpayable",
      "type": "function"
    },
    {
      "constant": true,
      "inputs": [],
      "name": "owner",
      "outputs": [
        {
          "name": "",
          "type": "address"
        }
      ],
      "payable": false,
      "stateMutability": "view",
      "type": "function"
    },
    {
      "constant": true,
      "inputs": [],
      "name": "funds",
      "outputs": [
        {
          "name": "",
          "type": "uint256"
        }
      ],
      "payable": false,
      "stateMutability": "view",
      "type": "function"
    },
    {
      "constant": true,
      "inputs": [
        {
          "name": "",
          "type": "uint256"
        }
      ],
      "name": "bounties",
      "outputs": [
        {
          "name": "owner",
          "type": "address"
        },
        {
          "name": "bid",
          "type": "uint256"
        },
        {
          "name": "name",
          "type": "string"
        },
        {
          "name": "description",
          "type": "string"
        },
        {
          "name": "amount",
          "type": "uint256"
        },
        {
          "name": "status",
          "type": "uint8"
        },
        {
          "name": "submissionCount",
          "type": "uint256"
        }
      ],
      "payable": false,
      "stateMutability": "view",
      "type": "function"
    },
    {
      "constant": false,
      "inputs": [
        {
          "name": "_newOwner",
          "type": "address"
        }
      ],
      "name": "transferOwnership",
      "outputs": [],
      "payable": false,
      "stateMutability": "nonpayable",
      "type": "function"
    },
    {
      "inputs": [],
      "payable": false,
      "stateMutability": "nonpayable",
      "type": "constructor"
    },
    {
      "anonymous": false,
      "inputs": [
        {
          "indexed": false,
          "name": "bid",
          "type": "uint256"
        }
      ],
      "name": "BountyCreated",
      "type": "event"
    },
    {
      "anonymous": false,
      "inputs": [
        {
          "indexed": false,
          "name": "bid",
          "type": "uint256"
        }
      ],
      "name": "MoneyTransfaredAfterApprovedBounty",
      "type": "event"
    },
    {
      "anonymous": false,
      "inputs": [
        {
          "indexed": false,
          "name": "sid",
          "type": "uint256"
        }
      ],
      "name": "SubmissionCreated",
      "type": "event"
    },
    {
      "anonymous": false,
      "inputs": [
        {
          "indexed": false,
          "name": "sid",
          "type": "uint256"
        }
      ],
      "name": "NewSubmissionAddedToBounty",
      "type": "event"
    },
    {
      "anonymous": false,
      "inputs": [
        {
          "indexed": false,
          "name": "bid",
          "type": "uint256"
        },
        {
          "indexed": false,
          "name": "sid",
          "type": "uint256"
        }
      ],
      "name": "SubmissionRejected",
      "type": "event"
    },
    {
      "anonymous": false,
      "inputs": [
        {
          "indexed": false,
          "name": "bid",
          "type": "uint256"
        },
        {
          "indexed": false,
          "name": "sid",
          "type": "uint256"
        }
      ],
      "name": "SubmissionApproved",
      "type": "event"
    },
    {
      "anonymous": false,
      "inputs": [
        {
          "indexed": true,
          "name": "previousOwner",
          "type": "address"
        }
      ],
      "name": "OwnershipRenounced",
      "type": "event"
    },
    {
      "anonymous": false,
      "inputs": [
        {
          "indexed": true,
          "name": "previousOwner",
          "type": "address"
        },
        {
          "indexed": true,
          "name": "newOwner",
          "type": "address"
        }
      ],
      "name": "OwnershipTransferred",
      "type": "event"
    },
    {
      "constant": false,
      "inputs": [
        {
          "name": "_name",
          "type": "string"
        },
        {
          "name": "_description",
          "type": "string"
        }
      ],
      "name": "createBounty",
      "outputs": [],
      "payable": true,
      "stateMutability": "payable",
      "type": "function"
    },
    {
      "constant": true,
      "inputs": [
        {
          "name": "_bid",
          "type": "uint256"
        }
      ],
      "name": "getBounty",
      "outputs": [
        {
          "name": "owner",
          "type": "address"
        },
        {
          "name": "bid",
          "type": "uint256"
        },
        {
          "name": "name",
          "type": "string"
        },
        {
          "name": "description",
          "type": "string"
        },
        {
          "name": "amount",
          "type": "uint256"
        },
        {
          "name": "status",
          "type": "uint8"
        }
      ],
      "payable": false,
      "stateMutability": "view",
      "type": "function"
    },
    {
      "constant": true,
      "inputs": [],
      "name": "getBountiesCount",
      "outputs": [
        {
          "name": "count",
          "type": "uint256"
        }
      ],
      "payable": false,
      "stateMutability": "view",
      "type": "function"
    },
    {
      "constant": false,
      "inputs": [
        {
          "name": "_bid",
          "type": "uint256"
        },
        {
          "name": "_sid",
          "type": "uint256"
        }
      ],
      "name": "rejectSubmission",
      "outputs": [],
      "payable": false,
      "stateMutability": "nonpayable",
      "type": "function"
    },
    {
      "constant": false,
      "inputs": [
        {
          "name": "_bid",
          "type": "uint256"
        },
        {
          "name": "_sid",
          "type": "uint256"
        }
      ],
      "name": "acceptSubmission",
      "outputs": [],
      "payable": false,
      "stateMutability": "nonpayable",
      "type": "function"
    },
    {
      "constant": false,
      "inputs": [
        {
          "name": "_bid",
          "type": "uint256"
        },
        {
          "name": "_description",
          "type": "string"
        }
      ],
      "name": "addSubmissionToBounty",
      "outputs": [],
      "payable": false,
      "stateMutability": "nonpayable",
      "type": "function"
    },
    {
      "constant": true,
      "inputs": [
        {
          "name": "_bid",
          "type": "uint256"
        },
        {
          "name": "_sid",
          "type": "uint256"
        }
      ],
      "name": "getSubmissionStatus",
      "outputs": [
        {
          "name": "status",
          "type": "uint8"
        }
      ],
      "payable": false,
      "stateMutability": "view",
      "type": "function"
    },
    {
      "constant": true,
      "inputs": [
        {
          "name": "_bid",
          "type": "uint256"
        }
      ],
      "name": "getSubmissionCount",
      "outputs": [
        {
          "name": "count",
          "type": "uint256"
        }
      ],
      "payable": false,
      "stateMutability": "view",
      "type": "function"
    },
    {
      "constant": true,
      "inputs": [
        {
          "name": "_bid",
          "type": "uint256"
        },
        {
          "name": "_sid",
          "type": "uint256"
        }
      ],
      "name": "getSubmission",
      "outputs": [
        {
          "name": "owner",
          "type": "address"
        },
        {
          "name": "sid",
          "type": "uint256"
        },
        {
          "name": "description",
          "type": "string"
        },
        {
          "name": "status",
          "type": "uint8"
        }
      ],
      "payable": false,
      "stateMutability": "view",
      "type": "function"
    }
  ],
  "bytecode": "0x608060405234801561001057600080fd5b50336000806101000a81548173ffffffffffffffffffffffffffffffffffffffff021916908373ffffffffffffffffffffffffffffffffffffffff160217905550611e09806100606000396000f3006080604052600436106100d0576000357c0100000000000000000000000000000000000000000000000000000000900463ffffffff16806301bfaae0146100d55780636d2008a514610100578063715018a6146101a25780637be24cb8146101b95780638da5cb5b146101fa578063b1804ffb14610251578063b77703e814610288578063b7ed7071146102fb578063c89f2ce4146103fa578063d8196f6d14610425578063d866164d1461047e578063dc2f8744146104b5578063ee8c4bbf14610624578063f2fde38b1461078c575b600080fd5b3480156100e157600080fd5b506100ea6107cf565b6040518082815260200191505060405180910390f35b6101a0600480360381019080803590602001908201803590602001908080601f0160208091040260200160405190810160405280939291908181526020018383808284378201915050505050509192919290803590602001908201803590602001908080601f01602080910402602001604051908101604052809392919081815260200183838082843782019150505050505091929192905050506107dc565b005b3480156101ae57600080fd5b506101b761096e565b005b3480156101c557600080fd5b506101e460048036038101908080359060200190929190505050610a70565b6040518082815260200191505060405180910390f35b34801561020657600080fd5b5061020f610a93565b604051808273ffffffffffffffffffffffffffffffffffffffff1673ffffffffffffffffffffffffffffffffffffffff16815260200191505060405180910390f35b34801561025d57600080fd5b506102866004803603810190808035906020019092919080359060200190929190505050610ab8565b005b34801561029457600080fd5b506102f960048036038101908080359060200190929190803590602001908201803590602001908080601f0160208091040260200160405190810160405280939291908181526020018383808284378201915050505050509192919290505050611041565b005b34801561030757600080fd5b506103306004803603810190808035906020019092919080359060200190929190505050611282565b604051808573ffffffffffffffffffffffffffffffffffffffff1673ffffffffffffffffffffffffffffffffffffffff1681526020018481526020018060200183600281111561037c57fe5b60ff168152602001828103825284818151815260200191508051906020019080838360005b838110156103bc5780820151818401526020810190506103a1565b50505050905090810190601f1680156103e95780820380516001836020036101000a031916815260200191505b509550505050505060405180910390f35b34801561040657600080fd5b5061040f611417565b6040518082815260200191505060405180910390f35b34801561043157600080fd5b5061045a600480360381019080803590602001909291908035906020019092919050505061141d565b6040518082600281111561046a57fe5b60ff16815260200191505060405180910390f35b34801561048a57600080fd5b506104b36004803603810190808035906020019092919080359060200190929190505050611462565b005b3480156104c157600080fd5b506104e060048036038101908080359060200190929190505050611821565b604051808873ffffffffffffffffffffffffffffffffffffffff1673ffffffffffffffffffffffffffffffffffffffff168152602001878152602001806020018060200186815260200185600181111561053657fe5b60ff168152602001848152602001838103835288818151815260200191508051906020019080838360005b8381101561057c578082015181840152602081019050610561565b50505050905090810190601f1680156105a95780820380516001836020036101000a031916815260200191505b50838103825287818151815260200191508051906020019080838360005b838110156105e25780820151818401526020810190506105c7565b50505050905090810190601f16801561060f5780820380516001836020036101000a031916815260200191505b50995050505050505050505060405180910390f35b34801561063057600080fd5b5061064f600480360381019080803590602001909291905050506119c0565b604051808773ffffffffffffffffffffffffffffffffffffffff1673ffffffffffffffffffffffffffffffffffffffff16815260200186815260200180602001806020018581526020018460018111156106a557fe5b60ff168152602001838103835287818151815260200191508051906020019080838360005b838110156106e55780820151818401526020810190506106ca565b50505050905090810190601f1680156107125780820380516001836020036101000a031916815260200191505b50838103825286818151815260200191508051906020019080838360005b8381101561074b578082015181840152602081019050610730565b50505050905090810190601f1680156107785780820380516001836020036101000a031916815260200191505b509850505050505050505060405180910390f35b34801561079857600080fd5b506107cd600480360381019080803573ffffffffffffffffffffffffffffffffffffffff169060200190929190505050611bd7565b005b6000600254905080905090565b3460016000828254019250508190555060e0604051908101604052803373ffffffffffffffffffffffffffffffffffffffff16815260200160025481526020018381526020018281526020013481526020016000600181111561083b57fe5b8152602001600081525060036000600254815260200190815260200160002060008201518160000160006101000a81548173ffffffffffffffffffffffffffffffffffffffff021916908373ffffffffffffffffffffffffffffffffffffffff1602179055506020820151816001015560408201518160020190805190602001906108c7929190611d38565b5060608201518160030190805190602001906108e4929190611d38565b506080820151816004015560a08201518160050160006101000a81548160ff0219169083600181111561091357fe5b021790555060c082015181600601559050507fd213cfe5d89cdaace45766af58a3bf6d48e2e2408543c764db97840016b6f09b6002546040518082815260200191505060405180910390a16001600254016002819055505050565b6000809054906101000a900473ffffffffffffffffffffffffffffffffffffffff1673ffffffffffffffffffffffffffffffffffffffff163373ffffffffffffffffffffffffffffffffffffffff161415156109c957600080fd5b6000809054906101000a900473ffffffffffffffffffffffffffffffffffffffff1673ffffffffffffffffffffffffffffffffffffffff167ff8df31144d9c2f0f6b59d69b8b98abd5459d07f2742c4df920b25aae33c6482060405160405180910390a260008060006101000a81548173ffffffffffffffffffffffffffffffffffffffff021916908373ffffffffffffffffffffffffffffffffffffffff160217905550565b600060036000838152602001908152602001600020600601549050809050919050565b6000809054906101000a900473ffffffffffffffffffffffffffffffffffffffff1681565b600080600080858560006003600084815260200190815260200160002060000160009054906101000a900473ffffffffffffffffffffffffffffffffffffffff1673ffffffffffffffffffffffffffffffffffffffff1614151515610b85576040517f08c379a000000000000000000000000000000000000000000000000000000000815260040180806020018281038252600f8152602001807f426f756e7479207265717569726564000000000000000000000000000000000081525060200191505060405180910390fd5b600060036000848152602001908152602001600020600701600083815260200190815260200160002060000160009054906101000a900473ffffffffffffffffffffffffffffffffffffffff1673ffffffffffffffffffffffffffffffffffffffff1614151515610c5e576040517f08c379a00000000000000000000000000000000000000000000000000000000081526004018080602001828103825260138152602001807f5375626d697373696f6e2072657175697265640000000000000000000000000081525060200191505060405180910390fd5b87600180811115610c6b57fe5b6003600083815260200190815260200160002060050160009054906101000a900460ff166001811115610c9a57fe5b14151515610d10576040517f08c379a00000000000000000000000000000000000000000000000000000000081526004018080602001828103825260118152602001807f426f756e747920697320636c6f7365642e00000000000000000000000000000081525060200191505060405180910390fd5b883373ffffffffffffffffffffffffffffffffffffffff166003600083815260200190815260200160002060000160009054906101000a900473ffffffffffffffffffffffffffffffffffffffff1673ffffffffffffffffffffffffffffffffffffffff16141515610dea576040517f08c379a00000000000000000000000000000000000000000000000000000000081526004018080602001828103825260128152602001807f426f756e7479206f776e6572206572726f72000000000000000000000000000081525060200191505060405180910390fd5b600360008b81526020019081526020016000206006015497506001600360008c815260200190815260200160002060050160006101000a81548160ff02191690836001811115610e3657fe5b0217905550600096505b87871015610f3a5788871415610ee0576001600360008c8152602001908152602001600020600701600089815260200190815260200160002060030160006101000a81548160ff02191690836002811115610e9757fe5b02179055507f4123156c41f76b6460961817f8cfe6668449562d3349c4df03cd8aaec8d696998a8a604051808381526020018281526020019250505060405180910390a1610f2d565b6002600360008c8152602001908152602001600020600701600089815260200190815260200160002060030160006101000a81548160ff02191690836002811115610f2757fe5b02179055505b8680600101975050610e40565b600360008b815260200190815260200160002060070160008a815260200190815260200160002060000160009054906101000a900473ffffffffffffffffffffffffffffffffffffffff169550600360008b815260200190815260200160002060040154945084600154101515610ffe5784600154036001819055508573ffffffffffffffffffffffffffffffffffffffff166108fc869081150290604051600060405180830381858888f19350505050158015610ffc573d6000803e3d6000fd5b505b7fdffd04afd0aaf355f60cdf95d5572d769695964ae149e187ae1b6098baa35b558a6040518082815260200191505060405180910390a150505050505050505050565b60008260006003600083815260200190815260200160002060000160009054906101000a900473ffffffffffffffffffffffffffffffffffffffff1673ffffffffffffffffffffffffffffffffffffffff1614151515611109576040517f08c379a000000000000000000000000000000000000000000000000000000000815260040180806020018281038252600f8152602001807f426f756e7479207265717569726564000000000000000000000000000000000081525060200191505060405180910390fd5b600360008581526020019081526020016000206006015491506080604051908101604052803373ffffffffffffffffffffffffffffffffffffffff1681526020018381526020018481526020016000600281111561116357fe5b81525060036000868152602001908152602001600020600701600084815260200190815260200160002060008201518160000160006101000a81548173ffffffffffffffffffffffffffffffffffffffff021916908373ffffffffffffffffffffffffffffffffffffffff1602179055506020820151816001015560408201518160020190805190602001906111fa929190611d38565b5060608201518160030160006101000a81548160ff0219169083600281111561121f57fe5b02179055509050506001820160036000868152602001908152602001600020600601819055507ff48377bf93139d3bcee357d60afe966eb4978cea6ea155d34f7ba4b636b4e972846040518082815260200191505060405180910390a150505050565b6000806060600060036000878152602001908152602001600020600701600086815260200190815260200160002060000160009054906101000a900473ffffffffffffffffffffffffffffffffffffffff1693506003600087815260200190815260200160002060070160008681526020019081526020016000206001015492506003600087815260200190815260200160002060070160008681526020019081526020016000206002018054600181600116156101000203166002900480601f0160208091040260200160405190810160405280929190818152602001828054600181600116156101000203166002900480156113c15780601f10611396576101008083540402835291602001916113c1565b820191906000526020600020905b8154815290600101906020018083116113a457829003601f168201915b5050505050915060036000878152602001908152602001600020600701600086815260200190815260200160002060030160009054906101000a900460ff16905083838383935093509350935092959194509250565b60015481565b600060036000848152602001908152602001600020600701600083815260200190815260200160002060030160009054906101000a900460ff16905080905092915050565b818160006003600084815260200190815260200160002060000160009054906101000a900473ffffffffffffffffffffffffffffffffffffffff1673ffffffffffffffffffffffffffffffffffffffff1614151515611529576040517f08c379a000000000000000000000000000000000000000000000000000000000815260040180806020018281038252600f8152602001807f426f756e7479207265717569726564000000000000000000000000000000000081525060200191505060405180910390fd5b600060036000848152602001908152602001600020600701600083815260200190815260200160002060000160009054906101000a900473ffffffffffffffffffffffffffffffffffffffff1673ffffffffffffffffffffffffffffffffffffffff1614151515611602576040517f08c379a00000000000000000000000000000000000000000000000000000000081526004018080602001828103825260138152602001807f5375626d697373696f6e2072657175697265640000000000000000000000000081525060200191505060405180910390fd5b8360018081111561160f57fe5b6003600083815260200190815260200160002060050160009054906101000a900460ff16600181111561163e57fe5b141515156116b4576040517f08c379a00000000000000000000000000000000000000000000000000000000081526004018080602001828103825260118152602001807f426f756e747920697320636c6f7365642e00000000000000000000000000000081525060200191505060405180910390fd5b843373ffffffffffffffffffffffffffffffffffffffff166003600083815260200190815260200160002060000160009054906101000a900473ffffffffffffffffffffffffffffffffffffffff1673ffffffffffffffffffffffffffffffffffffffff1614151561178e576040517f08c379a00000000000000000000000000000000000000000000000000000000081526004018080602001828103825260128152602001807f426f756e7479206f776e6572206572726f72000000000000000000000000000081525060200191505060405180910390fd5b600260036000888152602001908152602001600020600701600087815260200190815260200160002060030160006101000a81548160ff021916908360028111156117d557fe5b02179055507f509b9caa1d8aa63ed3b07c9e4f67665454a5d6b7f2ca51c89db25e04920274338686604051808381526020018281526020019250505060405180910390a1505050505050565b60036020528060005260406000206000915090508060000160009054906101000a900473ffffffffffffffffffffffffffffffffffffffff1690806001015490806002018054600181600116156101000203166002900480601f0160208091040260200160405190810160405280929190818152602001828054600181600116156101000203166002900480156118f95780601f106118ce576101008083540402835291602001916118f9565b820191906000526020600020905b8154815290600101906020018083116118dc57829003601f168201915b505050505090806003018054600181600116156101000203166002900480601f0160208091040260200160405190810160405280929190818152602001828054600181600116156101000203166002900480156119975780601f1061196c57610100808354040283529160200191611997565b820191906000526020600020905b81548152906001019060200180831161197a57829003601f168201915b5050505050908060040154908060050160009054906101000a900460ff16908060060154905087565b6000806060806000806003600088815260200190815260200160002060000160009054906101000a900473ffffffffffffffffffffffffffffffffffffffff16955060036000888152602001908152602001600020600101549450600360008881526020019081526020016000206002018054600181600116156101000203166002900480601f016020809104026020016040519081016040528092919081815260200182805460018160011615610100020316600290048015611ac55780601f10611a9a57610100808354040283529160200191611ac5565b820191906000526020600020905b815481529060010190602001808311611aa857829003601f168201915b50505050509350600360008881526020019081526020016000206003018054600181600116156101000203166002900480601f016020809104026020016040519081016040528092919081815260200182805460018160011615610100020316600290048015611b765780601f10611b4b57610100808354040283529160200191611b76565b820191906000526020600020905b815481529060010190602001808311611b5957829003601f168201915b50505050509250600360008881526020019081526020016000206004015491506003600088815260200190815260200160002060050160009054906101000a900460ff16905085858585858595509550955095509550955091939550919395565b6000809054906101000a900473ffffffffffffffffffffffffffffffffffffffff1673ffffffffffffffffffffffffffffffffffffffff163373ffffffffffffffffffffffffffffffffffffffff16141515611c3257600080fd5b611c3b81611c3e565b50565b600073ffffffffffffffffffffffffffffffffffffffff168173ffffffffffffffffffffffffffffffffffffffff1614151515611c7a57600080fd5b8073ffffffffffffffffffffffffffffffffffffffff166000809054906101000a900473ffffffffffffffffffffffffffffffffffffffff1673ffffffffffffffffffffffffffffffffffffffff167f8be0079c531659141344cd1fd0a4f28419497f9722a3daafe3b4186f6b6457e060405160405180910390a3806000806101000a81548173ffffffffffffffffffffffffffffffffffffffff021916908373ffffffffffffffffffffffffffffffffffffffff16021790555050565b828054600181600116156101000203166002900490600052602060002090601f016020900481019282601f10611d7957805160ff1916838001178555611da7565b82800160010185558215611da7579182015b82811115611da6578251825591602001919060010190611d8b565b5b509050611db49190611db8565b5090565b611dda91905b80821115611dd6576000816000905550600101611dbe565b5090565b905600a165627a7a72305820d726f7ea0c57b44cfe04e060309a67a7e5f1436d6f87fdecc4e61bbecf5f5ae90029",
  "source": " pragma solidity ^0.4.24;\n\nimport 'openzeppelin-solidity/contracts/ownership/Ownable.sol';\n\n/*\n @title Bounty - Decentlized app for creating bounties or job offers \n payed in Ether.\n @author Miha Perosa\n @notice This contract is was written for ConsenSys Academy’s 2018 Developer Program final project.\n @dev the contract ownership can be transfared\n*/\ncontract Bounty is Ownable {\n\n    /// @dev We keep track of the Ether that the contract has.\n    uint public funds;\n    /// @dev Store the number of bounties.\n    uint private bountiesCount;\n\n    /// @dev Mapping function that maps id of the bounty/job to a bounty item. \n    mapping(uint => Job) public bounties;\n\n    /// @dev Bounty can have Open and Close status.\n    enum BountyStatus { Open, Close }\n    /// @dev Submission can have UnderReview, Approved and Rejected status.\n    enum SubmissionStatus { UnderReview, Approved, Rejected }\n\n    /// @dev Structure that containing the bounty data. The structure name is Job because the main contract was named Bounty.\n    struct Job {\n        address owner;\n        uint bid;\n        string name;\n        string description;\n        uint amount;\n        BountyStatus status;\n        uint submissionCount;\n        mapping (uint => Submission) submissions;\n    }\n\n\t/// @dev Submission structure\n    struct Submission {\n        address owner;\n        uint sid;\n        string description;\n        SubmissionStatus status;\n    }\n\n    /// @dev Events related to bounty.\n    event BountyCreated(uint bid);\n    event MoneyTransfaredAfterApprovedBounty(uint bid);\n    /// @dev Submission events related to bounty.\n    event SubmissionCreated(uint sid);\n    event NewSubmissionAddedToBounty(uint sid);\n    event SubmissionRejected(uint bid, uint sid);\n    event SubmissionApproved(uint bid, uint sid);\n\n    /// @notice Modifier that checks if the interacting user is the owner of the bounty.\n    /// @param _bid Bounty id.\n    /// @return return if the bounty owner is not the sender.\n    modifier onlyBountyOwner(uint _bid) {\n        require(bounties[_bid].owner == msg.sender, \"Bounty owner error\");\n        _;\n    }\n\n    /// @notice Modifier that checks if bounty exists.\n    /// @param _bid Bounty id.\n    modifier onlyIfBountyExists(uint _bid) {\n        require(bounties[_bid].owner != 0, \"Bounty required\");\n        _;\n    }\n\n    /// @notice Modifier that checks if bounty is open.\n    /// @param _bid Bounty id.\n    modifier onlyIfBountyStatusNotClosed(uint _bid) {\n        require(bounties[_bid].status != BountyStatus.Close, \"Bounty is closed.\");\n        _;\n    }\n\n    /// @notice Modifier that checks if submission exisits.\n    /// @param _bid Bounty id.\n    /// @param _sid Submission id.\n    modifier onlyIfSubmissionExists(uint _bid, uint _sid) {\n        require(bounties[_bid].owner != 0, \"Bounty required\");\n        require(bounties[_bid].submissions[_sid].owner != 0, \"Submission required\");\n        _;\n    }\n\n    /// @notice Constructor.\n    constructor() public {}\n\n    /// @notice Create a bounty.\n    /// @dev The function is payable.\n    /// @param _name Bounty Name.\n    /// @param _description Bounty description.\n    function createBounty(string _name, string _description)\n        public \n\t\tpayable\n    {\n        funds += msg.value;\n        bounties[bountiesCount] = Job(\n            {owner: msg.sender, bid: bountiesCount, name: _name,\n            description: _description, amount: msg.value, status: BountyStatus.Open, \n            submissionCount: 0 \n            }\n        );\n        emit BountyCreated(bountiesCount);\n        bountiesCount = bountiesCount + 1;\n    }\t\n\n    /// @notice Get bounty with id.\n    /// @param _bid Bounty id.\n    /// @return owner, bid, name, description, amount, status\n    function getBounty(uint _bid) \n\t\tpublic view returns (address owner, uint bid, string name, string description, uint amount, BountyStatus status) \n\t{\n        owner = bounties[_bid].owner;\n        bid = bounties[_bid].bid;\n        name = bounties[_bid].name;\n        description = bounties[_bid].description;\n        amount = bounties[_bid].amount;\n        status = bounties[_bid].status;\t\t\n        return (owner, bid, name, description, amount, status);\n    }\n\n    /// @notice Function for getting the number of bounties.\n    /// @dev This is a helper function for iterating over bounties.\n    /// @return count\n    function getBountiesCount() public view returns (uint count) {\n        count = bountiesCount;\n        return (count);\n    }\n\n    /// @notice Function for rejecting a submission.\n    /// @param _bid Bounty id.\n    /// @param _sid Submission id.\n    function rejectSubmission(uint _bid, uint _sid)\n\t\tonlyIfSubmissionExists(_bid, _sid)\n\t\tonlyIfBountyStatusNotClosed(_bid)\n\t\tonlyBountyOwner(_bid)\n        public \n    {\n        bounties[_bid].submissions[_sid].status = SubmissionStatus.Rejected;\n        emit SubmissionRejected(_bid, _sid);\n    }\n\n    /// @notice Function for accepting a submission.\n    /// @dev Function updates the status of bounty to close and rejects all other submissions.\n    /// @param _bid Bounty id.\n    /// @param _sid Submission id.\n    function acceptSubmission(uint _bid, uint _sid)\n\t\tonlyIfSubmissionExists(_bid, _sid)\n\t\tonlyIfBountyStatusNotClosed(_bid)\n\t\tonlyBountyOwner(_bid)\n        public \n    {\n        uint length = bounties[_bid].submissionCount;\n        bounties[_bid].status = BountyStatus.Close;\n        for (uint i = 0; i < length; i++) {\n            if(i == _sid) {\n                bounties[_bid].submissions[i].status = SubmissionStatus.Approved;\n                emit SubmissionApproved(_bid, _sid);\n\t\t\t} else {\n                bounties[_bid].submissions[i].status = SubmissionStatus.Rejected;\n\t\t\t}\n        }\n        address receiver = bounties[_bid].submissions[_sid].owner;\n        uint amount = bounties[_bid].amount;\n\n        if(funds >= amount) {\n            funds = funds - amount;\n            receiver.transfer(amount);\n\t\t}\n\t\t\n        emit MoneyTransfaredAfterApprovedBounty(_bid);\n    }\n\n    /// @notice Add a submission to bounty.\n    /// @param _bid Bounty id.\n    /// @param _description Submission description.\n    function addSubmissionToBounty(uint _bid, string _description)\n\t\tonlyIfBountyExists(_bid)\n        public \n    {\n        uint index = bounties[_bid].submissionCount;\n        bounties[_bid].submissions[index] = Submission({owner: msg.sender, sid: index, description: _description, status: SubmissionStatus.UnderReview});\n        bounties[_bid].submissionCount = index + 1;\n        emit NewSubmissionAddedToBounty(_bid);\n    }\n\n    /// @notice Function for getting the status of a submission.\n    /// @dev This is a helper function for tests.\n    /// @param _bid Bounty id.\n    /// @param _sid Submission id.\n    /// @return status\n    function getSubmissionStatus(uint _bid, uint _sid) public view returns (SubmissionStatus status) {\n        status = bounties[_bid].submissions[_sid].status;\n        return (status);\n    }\n\n    /// @notice Function for getting the number of a submission.\n    /// @dev This is a helper function for iterating over submissions.\n    /// @param _bid Bounty id.\n    /// @return count\n    function getSubmissionCount(uint _bid) public view returns (uint count) {\n        count = bounties[_bid].submissionCount;\n        return (count);\n    }\n\n    /// @notice Get submission with id.\n    /// @param _bid Bounty id.\n    /// @param _sid Submission id\n    /// @return owner, sid, description, status\n    function getSubmission(uint _bid, uint _sid) public view returns (address owner, uint sid, string description, SubmissionStatus status) {\n        owner = bounties[_bid].submissions[_sid].owner;\n        sid = bounties[_bid].submissions[_sid].sid;\n        description = bounties[_bid].submissions[_sid].description;\n        status = bounties[_bid].submissions[_sid].status;\n        return (owner, sid, description, status);\n    }\n}",
  "sourcePath": "/Users/miha/Desktop/Consensys/final-project/bounty-dApp/contracts/Bounty.sol",
  "compiler": {
    "name": "solc",
    "version": "0.4.24+commit.e67f0147.Emscripten.clang"
  },
  "schemaVersion": "2.0.1",
  "updatedAt": "2018-08-25T06:45:33.983Z"
}