{
  "contractName": "Bounty",
  "abi": [
    {
      "constant": false,
      "inputs": [],
      "name": "renounceOwnership",
      "outputs": [],
      "payable": false,
      "stateMutability": "nonpayable",
      "type": "function"
    },
    {
      "constant": true,
      "inputs": [],
      "name": "owner",
      "outputs": [
        {
          "name": "",
          "type": "address"
        }
      ],
      "payable": false,
      "stateMutability": "view",
      "type": "function"
    },
    {
      "constant": true,
      "inputs": [],
      "name": "funds",
      "outputs": [
        {
          "name": "",
          "type": "uint256"
        }
      ],
      "payable": false,
      "stateMutability": "view",
      "type": "function"
    },
    {
      "constant": true,
      "inputs": [
        {
          "name": "",
          "type": "uint256"
        }
      ],
      "name": "bounties",
      "outputs": [
        {
          "name": "owner",
          "type": "address"
        },
        {
          "name": "bid",
          "type": "uint256"
        },
        {
          "name": "name",
          "type": "string"
        },
        {
          "name": "description",
          "type": "string"
        },
        {
          "name": "amount",
          "type": "uint256"
        },
        {
          "name": "status",
          "type": "uint8"
        },
        {
          "name": "submissionCount",
          "type": "uint256"
        }
      ],
      "payable": false,
      "stateMutability": "view",
      "type": "function"
    },
    {
      "constant": false,
      "inputs": [
        {
          "name": "_newOwner",
          "type": "address"
        }
      ],
      "name": "transferOwnership",
      "outputs": [],
      "payable": false,
      "stateMutability": "nonpayable",
      "type": "function"
    },
    {
      "inputs": [],
      "payable": false,
      "stateMutability": "nonpayable",
      "type": "constructor"
    },
    {
      "anonymous": false,
      "inputs": [
        {
          "indexed": false,
          "name": "bid",
          "type": "uint256"
        }
      ],
      "name": "BountyCreated",
      "type": "event"
    },
    {
      "anonymous": false,
      "inputs": [
        {
          "indexed": false,
          "name": "sid",
          "type": "uint256"
        }
      ],
      "name": "SubmissionCreated",
      "type": "event"
    },
    {
      "anonymous": false,
      "inputs": [
        {
          "indexed": false,
          "name": "sid",
          "type": "uint256"
        }
      ],
      "name": "NewSubmissionAddedToBounty",
      "type": "event"
    },
    {
      "anonymous": false,
      "inputs": [
        {
          "indexed": false,
          "name": "bid",
          "type": "uint256"
        },
        {
          "indexed": false,
          "name": "sid",
          "type": "uint256"
        }
      ],
      "name": "SubmissionRejected",
      "type": "event"
    },
    {
      "anonymous": false,
      "inputs": [
        {
          "indexed": false,
          "name": "bid",
          "type": "uint256"
        },
        {
          "indexed": false,
          "name": "sid",
          "type": "uint256"
        }
      ],
      "name": "SubmissionApproved",
      "type": "event"
    },
    {
      "anonymous": false,
      "inputs": [
        {
          "indexed": false,
          "name": "bid",
          "type": "uint256"
        }
      ],
      "name": "MoneyTransfaredAfterApprovedBounty",
      "type": "event"
    },
    {
      "anonymous": false,
      "inputs": [
        {
          "indexed": false,
          "name": "bid",
          "type": "uint256"
        },
        {
          "indexed": false,
          "name": "sid",
          "type": "uint256"
        }
      ],
      "name": "SubmissionStatusUpdated",
      "type": "event"
    },
    {
      "anonymous": false,
      "inputs": [
        {
          "indexed": false,
          "name": "bid",
          "type": "uint256"
        },
        {
          "indexed": false,
          "name": "sid",
          "type": "uint256"
        }
      ],
      "name": "SubmissionDeleted",
      "type": "event"
    },
    {
      "anonymous": false,
      "inputs": [
        {
          "indexed": true,
          "name": "previousOwner",
          "type": "address"
        }
      ],
      "name": "OwnershipRenounced",
      "type": "event"
    },
    {
      "anonymous": false,
      "inputs": [
        {
          "indexed": true,
          "name": "previousOwner",
          "type": "address"
        },
        {
          "indexed": true,
          "name": "newOwner",
          "type": "address"
        }
      ],
      "name": "OwnershipTransferred",
      "type": "event"
    },
    {
      "constant": false,
      "inputs": [
        {
          "name": "_name",
          "type": "string"
        },
        {
          "name": "_description",
          "type": "string"
        }
      ],
      "name": "createBounty",
      "outputs": [],
      "payable": true,
      "stateMutability": "payable",
      "type": "function"
    },
    {
      "constant": true,
      "inputs": [
        {
          "name": "_bid",
          "type": "uint256"
        }
      ],
      "name": "getBounty",
      "outputs": [
        {
          "name": "owner",
          "type": "address"
        },
        {
          "name": "bid",
          "type": "uint256"
        },
        {
          "name": "name",
          "type": "string"
        },
        {
          "name": "description",
          "type": "string"
        },
        {
          "name": "amount",
          "type": "uint256"
        },
        {
          "name": "status",
          "type": "uint8"
        }
      ],
      "payable": false,
      "stateMutability": "view",
      "type": "function"
    },
    {
      "constant": true,
      "inputs": [],
      "name": "getBountiesCount",
      "outputs": [
        {
          "name": "count",
          "type": "uint256"
        }
      ],
      "payable": false,
      "stateMutability": "view",
      "type": "function"
    },
    {
      "constant": false,
      "inputs": [
        {
          "name": "_bid",
          "type": "uint256"
        },
        {
          "name": "_sid",
          "type": "uint256"
        },
        {
          "name": "_status",
          "type": "uint8"
        }
      ],
      "name": "updateSubmissionStatus",
      "outputs": [],
      "payable": false,
      "stateMutability": "nonpayable",
      "type": "function"
    },
    {
      "constant": false,
      "inputs": [
        {
          "name": "_bid",
          "type": "uint256"
        },
        {
          "name": "_sid",
          "type": "uint256"
        }
      ],
      "name": "rejectSubmission",
      "outputs": [],
      "payable": false,
      "stateMutability": "nonpayable",
      "type": "function"
    },
    {
      "constant": false,
      "inputs": [
        {
          "name": "_bid",
          "type": "uint256"
        },
        {
          "name": "_sid",
          "type": "uint256"
        }
      ],
      "name": "acceptSubmission",
      "outputs": [],
      "payable": false,
      "stateMutability": "nonpayable",
      "type": "function"
    },
    {
      "constant": false,
      "inputs": [
        {
          "name": "_bid",
          "type": "uint256"
        },
        {
          "name": "_description",
          "type": "string"
        }
      ],
      "name": "addSubmissionToBounty",
      "outputs": [],
      "payable": false,
      "stateMutability": "nonpayable",
      "type": "function"
    },
    {
      "constant": true,
      "inputs": [
        {
          "name": "_bid",
          "type": "uint256"
        },
        {
          "name": "_sid",
          "type": "uint256"
        }
      ],
      "name": "getSubmissionStatus",
      "outputs": [
        {
          "name": "status",
          "type": "uint8"
        }
      ],
      "payable": false,
      "stateMutability": "view",
      "type": "function"
    },
    {
      "constant": true,
      "inputs": [
        {
          "name": "_bid",
          "type": "uint256"
        }
      ],
      "name": "getSubmissionCount",
      "outputs": [
        {
          "name": "count",
          "type": "uint256"
        }
      ],
      "payable": false,
      "stateMutability": "view",
      "type": "function"
    },
    {
      "constant": true,
      "inputs": [
        {
          "name": "_bid",
          "type": "uint256"
        },
        {
          "name": "_sid",
          "type": "uint256"
        }
      ],
      "name": "getSubmission",
      "outputs": [
        {
          "name": "owner",
          "type": "address"
        },
        {
          "name": "sid",
          "type": "uint256"
        },
        {
          "name": "description",
          "type": "string"
        },
        {
          "name": "status",
          "type": "uint8"
        }
      ],
      "payable": false,
      "stateMutability": "view",
      "type": "function"
    }
  ],
  "bytecode": "0x608060405234801561001057600080fd5b50336000806101000a81548173ffffffffffffffffffffffffffffffffffffffff021916908373ffffffffffffffffffffffffffffffffffffffff1602179055506122de806100606000396000f3006080604052600436106100db576000357c0100000000000000000000000000000000000000000000000000000000900463ffffffff16806301bfaae0146100e0578063337e1f351461010b5780636d2008a51461014f578063715018a6146101f15780637be24cb8146102085780638da5cb5b14610249578063b1804ffb146102a0578063b77703e8146102d7578063b7ed70711461034a578063c89f2ce414610449578063d8196f6d14610474578063d866164d146104cd578063dc2f874414610504578063ee8c4bbf14610673578063f2fde38b146107db575b600080fd5b3480156100ec57600080fd5b506100f561081e565b6040518082815260200191505060405180910390f35b34801561011757600080fd5b5061014d6004803603810190808035906020019092919080359060200190929190803560ff16906020019092919050505061082b565b005b6101ef600480360381019080803590602001908201803590602001908080601f0160208091040260200160405190810160405280939291908181526020018383808284378201915050505050509192919290803590602001908201803590602001908080601f0160208091040260200160405190810160405280939291908181526020018383808284378201915050505050509192919290505050610bea565b005b3480156101fd57600080fd5b50610206610d7c565b005b34801561021457600080fd5b5061023360048036038101908080359060200190929190505050610e7e565b6040518082815260200191505060405180910390f35b34801561025557600080fd5b5061025e610ea1565b604051808273ffffffffffffffffffffffffffffffffffffffff1673ffffffffffffffffffffffffffffffffffffffff16815260200191505060405180910390f35b3480156102ac57600080fd5b506102d56004803603810190808035906020019092919080359060200190929190505050610ec6565b005b3480156102e357600080fd5b5061034860048036038101908080359060200190929190803590602001908201803590602001908080601f016020809104026020016040519081016040528093929190818152602001838380828437820191505050505050919291929050505061144f565b005b34801561035657600080fd5b5061037f6004803603810190808035906020019092919080359060200190929190505050611690565b604051808573ffffffffffffffffffffffffffffffffffffffff1673ffffffffffffffffffffffffffffffffffffffff168152602001848152602001806020018360028111156103cb57fe5b60ff168152602001828103825284818151815260200191508051906020019080838360005b8381101561040b5780820151818401526020810190506103f0565b50505050905090810190601f1680156104385780820380516001836020036101000a031916815260200191505b509550505050505060405180910390f35b34801561045557600080fd5b5061045e611825565b6040518082815260200191505060405180910390f35b34801561048057600080fd5b506104a9600480360381019080803590602001909291908035906020019092919050505061182b565b604051808260028111156104b957fe5b60ff16815260200191505060405180910390f35b3480156104d957600080fd5b506105026004803603810190808035906020019092919080359060200190929190505050611870565b005b34801561051057600080fd5b5061052f60048036038101908080359060200190929190505050611c2f565b604051808873ffffffffffffffffffffffffffffffffffffffff1673ffffffffffffffffffffffffffffffffffffffff168152602001878152602001806020018060200186815260200185600181111561058557fe5b60ff168152602001848152602001838103835288818151815260200191508051906020019080838360005b838110156105cb5780820151818401526020810190506105b0565b50505050905090810190601f1680156105f85780820380516001836020036101000a031916815260200191505b50838103825287818151815260200191508051906020019080838360005b83811015610631578082015181840152602081019050610616565b50505050905090810190601f16801561065e5780820380516001836020036101000a031916815260200191505b50995050505050505050505060405180910390f35b34801561067f57600080fd5b5061069e60048036038101908080359060200190929190505050611dce565b604051808773ffffffffffffffffffffffffffffffffffffffff1673ffffffffffffffffffffffffffffffffffffffff16815260200186815260200180602001806020018581526020018460018111156106f457fe5b60ff168152602001838103835287818151815260200191508051906020019080838360005b83811015610734578082015181840152602081019050610719565b50505050905090810190601f1680156107615780820380516001836020036101000a031916815260200191505b50838103825286818151815260200191508051906020019080838360005b8381101561079a57808201518184015260208101905061077f565b50505050905090810190601f1680156107c75780820380516001836020036101000a031916815260200191505b509850505050505050505060405180910390f35b3480156107e757600080fd5b5061081c600480360381019080803573ffffffffffffffffffffffffffffffffffffffff1690602001909291905050506120ac565b005b6000600254905080905090565b828260006003600084815260200190815260200160002060000160009054906101000a900473ffffffffffffffffffffffffffffffffffffffff1673ffffffffffffffffffffffffffffffffffffffff16141515156108f2576040517f08c379a000000000000000000000000000000000000000000000000000000000815260040180806020018281038252600f8152602001807f426f756e7479207265717569726564000000000000000000000000000000000081525060200191505060405180910390fd5b600060036000848152602001908152602001600020600701600083815260200190815260200160002060000160009054906101000a900473ffffffffffffffffffffffffffffffffffffffff1673ffffffffffffffffffffffffffffffffffffffff16141515156109cb576040517f08c379a00000000000000000000000000000000000000000000000000000000081526004018080602001828103825260138152602001807f5375626d697373696f6e2072657175697265640000000000000000000000000081525060200191505060405180910390fd5b846001808111156109d857fe5b6003600083815260200190815260200160002060050160009054906101000a900460ff166001811115610a0757fe5b14151515610a7d576040517f08c379a00000000000000000000000000000000000000000000000000000000081526004018080602001828103825260118152602001807f426f756e747920697320636c6f7365642e00000000000000000000000000000081525060200191505060405180910390fd5b853373ffffffffffffffffffffffffffffffffffffffff166003600083815260200190815260200160002060000160009054906101000a900473ffffffffffffffffffffffffffffffffffffffff1673ffffffffffffffffffffffffffffffffffffffff16141515610b57576040517f08c379a00000000000000000000000000000000000000000000000000000000081526004018080602001828103825260128152602001807f426f756e7479206f776e6572206572726f72000000000000000000000000000081525060200191505060405180910390fd5b8460036000898152602001908152602001600020600701600088815260200190815260200160002060030160006101000a81548160ff02191690836002811115610b9d57fe5b02179055507f7634bbfcd57ed2133a5d933909cbe43530b1f617530ea2e1c12d88f7e880633a8787604051808381526020018281526020019250505060405180910390a150505050505050565b3460016000828254019250508190555060e0604051908101604052803373ffffffffffffffffffffffffffffffffffffffff168152602001600254815260200183815260200182815260200134815260200160006001811115610c4957fe5b8152602001600081525060036000600254815260200190815260200160002060008201518160000160006101000a81548173ffffffffffffffffffffffffffffffffffffffff021916908373ffffffffffffffffffffffffffffffffffffffff160217905550602082015181600101556040820151816002019080519060200190610cd592919061220d565b506060820151816003019080519060200190610cf292919061220d565b506080820151816004015560a08201518160050160006101000a81548160ff02191690836001811115610d2157fe5b021790555060c082015181600601559050507fd213cfe5d89cdaace45766af58a3bf6d48e2e2408543c764db97840016b6f09b6002546040518082815260200191505060405180910390a16001600254016002819055505050565b6000809054906101000a900473ffffffffffffffffffffffffffffffffffffffff1673ffffffffffffffffffffffffffffffffffffffff163373ffffffffffffffffffffffffffffffffffffffff16141515610dd757600080fd5b6000809054906101000a900473ffffffffffffffffffffffffffffffffffffffff1673ffffffffffffffffffffffffffffffffffffffff167ff8df31144d9c2f0f6b59d69b8b98abd5459d07f2742c4df920b25aae33c6482060405160405180910390a260008060006101000a81548173ffffffffffffffffffffffffffffffffffffffff021916908373ffffffffffffffffffffffffffffffffffffffff160217905550565b600060036000838152602001908152602001600020600601549050809050919050565b6000809054906101000a900473ffffffffffffffffffffffffffffffffffffffff1681565b600080600080858560006003600084815260200190815260200160002060000160009054906101000a900473ffffffffffffffffffffffffffffffffffffffff1673ffffffffffffffffffffffffffffffffffffffff1614151515610f93576040517f08c379a000000000000000000000000000000000000000000000000000000000815260040180806020018281038252600f8152602001807f426f756e7479207265717569726564000000000000000000000000000000000081525060200191505060405180910390fd5b600060036000848152602001908152602001600020600701600083815260200190815260200160002060000160009054906101000a900473ffffffffffffffffffffffffffffffffffffffff1673ffffffffffffffffffffffffffffffffffffffff161415151561106c576040517f08c379a00000000000000000000000000000000000000000000000000000000081526004018080602001828103825260138152602001807f5375626d697373696f6e2072657175697265640000000000000000000000000081525060200191505060405180910390fd5b8760018081111561107957fe5b6003600083815260200190815260200160002060050160009054906101000a900460ff1660018111156110a857fe5b1415151561111e576040517f08c379a00000000000000000000000000000000000000000000000000000000081526004018080602001828103825260118152602001807f426f756e747920697320636c6f7365642e00000000000000000000000000000081525060200191505060405180910390fd5b883373ffffffffffffffffffffffffffffffffffffffff166003600083815260200190815260200160002060000160009054906101000a900473ffffffffffffffffffffffffffffffffffffffff1673ffffffffffffffffffffffffffffffffffffffff161415156111f8576040517f08c379a00000000000000000000000000000000000000000000000000000000081526004018080602001828103825260128152602001807f426f756e7479206f776e6572206572726f72000000000000000000000000000081525060200191505060405180910390fd5b600360008b81526020019081526020016000206006015497506001600360008c815260200190815260200160002060050160006101000a81548160ff0219169083600181111561124457fe5b0217905550600096505b8787101561134857888714156112ee576001600360008c8152602001908152602001600020600701600089815260200190815260200160002060030160006101000a81548160ff021916908360028111156112a557fe5b02179055507f4123156c41f76b6460961817f8cfe6668449562d3349c4df03cd8aaec8d696998a8a604051808381526020018281526020019250505060405180910390a161133b565b6002600360008c8152602001908152602001600020600701600089815260200190815260200160002060030160006101000a81548160ff0219169083600281111561133557fe5b02179055505b868060010197505061124e565b600360008b815260200190815260200160002060070160008a815260200190815260200160002060000160009054906101000a900473ffffffffffffffffffffffffffffffffffffffff169550600360008b81526020019081526020016000206004015494508460015410151561140c5784600154036001819055508573ffffffffffffffffffffffffffffffffffffffff166108fc869081150290604051600060405180830381858888f1935050505015801561140a573d6000803e3d6000fd5b505b7fdffd04afd0aaf355f60cdf95d5572d769695964ae149e187ae1b6098baa35b558a6040518082815260200191505060405180910390a150505050505050505050565b60008260006003600083815260200190815260200160002060000160009054906101000a900473ffffffffffffffffffffffffffffffffffffffff1673ffffffffffffffffffffffffffffffffffffffff1614151515611517576040517f08c379a000000000000000000000000000000000000000000000000000000000815260040180806020018281038252600f8152602001807f426f756e7479207265717569726564000000000000000000000000000000000081525060200191505060405180910390fd5b600360008581526020019081526020016000206006015491506080604051908101604052803373ffffffffffffffffffffffffffffffffffffffff1681526020018381526020018481526020016000600281111561157157fe5b81525060036000868152602001908152602001600020600701600084815260200190815260200160002060008201518160000160006101000a81548173ffffffffffffffffffffffffffffffffffffffff021916908373ffffffffffffffffffffffffffffffffffffffff16021790555060208201518160010155604082015181600201908051906020019061160892919061220d565b5060608201518160030160006101000a81548160ff0219169083600281111561162d57fe5b02179055509050506001820160036000868152602001908152602001600020600601819055507ff48377bf93139d3bcee357d60afe966eb4978cea6ea155d34f7ba4b636b4e972846040518082815260200191505060405180910390a150505050565b6000806060600060036000878152602001908152602001600020600701600086815260200190815260200160002060000160009054906101000a900473ffffffffffffffffffffffffffffffffffffffff1693506003600087815260200190815260200160002060070160008681526020019081526020016000206001015492506003600087815260200190815260200160002060070160008681526020019081526020016000206002018054600181600116156101000203166002900480601f0160208091040260200160405190810160405280929190818152602001828054600181600116156101000203166002900480156117cf5780601f106117a4576101008083540402835291602001916117cf565b820191906000526020600020905b8154815290600101906020018083116117b257829003601f168201915b5050505050915060036000878152602001908152602001600020600701600086815260200190815260200160002060030160009054906101000a900460ff16905083838383935093509350935092959194509250565b60015481565b600060036000848152602001908152602001600020600701600083815260200190815260200160002060030160009054906101000a900460ff16905080905092915050565b818160006003600084815260200190815260200160002060000160009054906101000a900473ffffffffffffffffffffffffffffffffffffffff1673ffffffffffffffffffffffffffffffffffffffff1614151515611937576040517f08c379a000000000000000000000000000000000000000000000000000000000815260040180806020018281038252600f8152602001807f426f756e7479207265717569726564000000000000000000000000000000000081525060200191505060405180910390fd5b600060036000848152602001908152602001600020600701600083815260200190815260200160002060000160009054906101000a900473ffffffffffffffffffffffffffffffffffffffff1673ffffffffffffffffffffffffffffffffffffffff1614151515611a10576040517f08c379a00000000000000000000000000000000000000000000000000000000081526004018080602001828103825260138152602001807f5375626d697373696f6e2072657175697265640000000000000000000000000081525060200191505060405180910390fd5b83600180811115611a1d57fe5b6003600083815260200190815260200160002060050160009054906101000a900460ff166001811115611a4c57fe5b14151515611ac2576040517f08c379a00000000000000000000000000000000000000000000000000000000081526004018080602001828103825260118152602001807f426f756e747920697320636c6f7365642e00000000000000000000000000000081525060200191505060405180910390fd5b843373ffffffffffffffffffffffffffffffffffffffff166003600083815260200190815260200160002060000160009054906101000a900473ffffffffffffffffffffffffffffffffffffffff1673ffffffffffffffffffffffffffffffffffffffff16141515611b9c576040517f08c379a00000000000000000000000000000000000000000000000000000000081526004018080602001828103825260128152602001807f426f756e7479206f776e6572206572726f72000000000000000000000000000081525060200191505060405180910390fd5b600260036000888152602001908152602001600020600701600087815260200190815260200160002060030160006101000a81548160ff02191690836002811115611be357fe5b02179055507f509b9caa1d8aa63ed3b07c9e4f67665454a5d6b7f2ca51c89db25e04920274338686604051808381526020018281526020019250505060405180910390a1505050505050565b60036020528060005260406000206000915090508060000160009054906101000a900473ffffffffffffffffffffffffffffffffffffffff1690806001015490806002018054600181600116156101000203166002900480601f016020809104026020016040519081016040528092919081815260200182805460018160011615610100020316600290048015611d075780601f10611cdc57610100808354040283529160200191611d07565b820191906000526020600020905b815481529060010190602001808311611cea57829003601f168201915b505050505090806003018054600181600116156101000203166002900480601f016020809104026020016040519081016040528092919081815260200182805460018160011615610100020316600290048015611da55780601f10611d7a57610100808354040283529160200191611da5565b820191906000526020600020905b815481529060010190602001808311611d8857829003601f168201915b5050505050908060040154908060050160009054906101000a900460ff16908060060154905087565b6000806060806000808660006003600083815260200190815260200160002060000160009054906101000a900473ffffffffffffffffffffffffffffffffffffffff1673ffffffffffffffffffffffffffffffffffffffff1614151515611e9d576040517f08c379a000000000000000000000000000000000000000000000000000000000815260040180806020018281038252600f8152602001807f426f756e7479207265717569726564000000000000000000000000000000000081525060200191505060405180910390fd5b6003600089815260200190815260200160002060000160009054906101000a900473ffffffffffffffffffffffffffffffffffffffff16965060036000898152602001908152602001600020600101549550600360008981526020019081526020016000206002018054600181600116156101000203166002900480601f016020809104026020016040519081016040528092919081815260200182805460018160011615610100020316600290048015611f995780601f10611f6e57610100808354040283529160200191611f99565b820191906000526020600020905b815481529060010190602001808311611f7c57829003601f168201915b50505050509450600360008981526020019081526020016000206003018054600181600116156101000203166002900480601f01602080910402602001604051908101604052809291908181526020018280546001816001161561010002031660029004801561204a5780601f1061201f5761010080835404028352916020019161204a565b820191906000526020600020905b81548152906001019060200180831161202d57829003601f168201915b50505050509350600360008981526020019081526020016000206004015492506003600089815260200190815260200160002060050160009054906101000a900460ff1691508686868686869650965096509650965096505091939550919395565b6000809054906101000a900473ffffffffffffffffffffffffffffffffffffffff1673ffffffffffffffffffffffffffffffffffffffff163373ffffffffffffffffffffffffffffffffffffffff1614151561210757600080fd5b61211081612113565b50565b600073ffffffffffffffffffffffffffffffffffffffff168173ffffffffffffffffffffffffffffffffffffffff161415151561214f57600080fd5b8073ffffffffffffffffffffffffffffffffffffffff166000809054906101000a900473ffffffffffffffffffffffffffffffffffffffff1673ffffffffffffffffffffffffffffffffffffffff167f8be0079c531659141344cd1fd0a4f28419497f9722a3daafe3b4186f6b6457e060405160405180910390a3806000806101000a81548173ffffffffffffffffffffffffffffffffffffffff021916908373ffffffffffffffffffffffffffffffffffffffff16021790555050565b828054600181600116156101000203166002900490600052602060002090601f016020900481019282601f1061224e57805160ff191683800117855561227c565b8280016001018555821561227c579182015b8281111561227b578251825591602001919060010190612260565b5b509050612289919061228d565b5090565b6122af91905b808211156122ab576000816000905550600101612293565b5090565b905600a165627a7a72305820116ae6cd2e6129fa77cfda26df6fc726f017d48fdc57f9356e8dd01808f5b69c0029",
  "source": " pragma solidity ^0.4.24;\n\nimport 'openzeppelin-solidity/contracts/ownership/Ownable.sol';\n\n/// @title Final project for ConsenSys Academy 2018\n/// @author Miha Perosa\n/// @notice \n/// @dev \ncontract Bounty is Ownable {\n\n    /* bountiesCount = number of bounties */\n    uint public funds;\n    uint private bountiesCount;\n\n    /* Mapping the markets based on the id */\n    mapping(uint => Job) public bounties;\n    // mapping(address => uint) public addressStore;\n    \n    // address[16] public adopters;\n\n    enum BountyStatus { Open, Close }\n    enum SubmissionStatus { UnderReview, Approved, Rejected }\n\n    /* Bounty */\n    struct Job {\n        address owner;\n        uint bid;\n        string name;\n        string description;\n        uint amount;\n        BountyStatus status;\n        uint submissionCount;\n        mapping (uint => Submission) submissions;\n    }\n\n\t/* Bounty Submission */\n    struct Submission {\n        address owner;\n        uint sid;\n        string description;\n        SubmissionStatus status;\n    }\n\n    /* Events */\n    event BountyCreated(uint bid);\n    event SubmissionCreated(uint sid);\n    event NewSubmissionAddedToBounty(uint sid);\n    event SubmissionRejected(uint bid, uint sid);\n    event SubmissionApproved(uint bid, uint sid);\n    event MoneyTransfaredAfterApprovedBounty(uint bid);\n    event SubmissionStatusUpdated(uint bid, uint sid);\n    event SubmissionDeleted(uint bid, uint sid);\t\n\n    /* Modifiers */\n\n    /// @notice Explain to a user what a function does\n    /// @dev Explain to a developer any extra details\n    /// @param _bid Bounty id\n    /// @return return if the bounty owner is not the sender\n\n    modifier onlyBountyOwner(uint _bid) {\n        require(bounties[_bid].owner == msg.sender, \"Bounty owner error\");\n        _;\n    }\n\n    modifier onlyIfBountyExists(uint _bid) {\n        require(bounties[_bid].owner != 0, \"Bounty required\");\n        _;\n    }\n\n\tmodifier onlyIfBountyStatusNotClosed(uint _bid) {\n        require(bounties[_bid].status != BountyStatus.Close, \"Bounty is closed.\");\n        _;\n    }\n\n    modifier onlyIfSubmissionExists(uint _bid, uint _sid) {\n        require(bounties[_bid].owner != 0, \"Bounty required\");\n        require(bounties[_bid].submissions[_sid].owner != 0, \"Submission required\");\n        _;\n    }\n\n    modifier onlySubmissionOwner(uint _bid, uint _sid) {\n        require(bounties[_bid].submissions[_sid].owner == msg.sender, \"Submission owner error\");\n        _;\n    }\n\n    // Constructor,\n    constructor() public {       \n    }\n\n    function createBounty(string _name, string _description)\n        // noStoreYet(msg.sender)\n        public \n\t\tpayable\n    {\n        funds += msg.value;\n\t\tbounties[bountiesCount] = Job({owner: msg.sender, bid: bountiesCount, name: _name, description: _description, amount: msg.value, status: BountyStatus.Open, submissionCount: 0 });\n        emit BountyCreated(bountiesCount);\n        bountiesCount = bountiesCount + 1;\n    }\t\n\n    /* Get bounty info */\n    function getBounty(uint _bid) \n\t\tonlyIfBountyExists(_bid)\n\t\tpublic view returns (address owner, uint bid, string name, string description, uint amount, BountyStatus status) \n\t{\n        owner = bounties[_bid].owner;\n        bid = bounties[_bid].bid;\n        name = bounties[_bid].name;\n        description = bounties[_bid].description;\n        amount = bounties[_bid].amount;\n        status = bounties[_bid].status;\t\t\n        return (owner, bid, name, description, amount, status);\n    }\n\n\t/* Get bounties Count */\n    function getBountiesCount() public view returns (uint count) {\n        count = bountiesCount;\n        return (count);\n    }\n\n\t/* Get item to bounty */\n    function updateSubmissionStatus(uint _bid, uint _sid, SubmissionStatus _status)\n\t\tonlyIfSubmissionExists(_bid, _sid)\n\t\tonlyIfBountyStatusNotClosed(_bid)\n\t\tonlyBountyOwner(_bid)\n        public \n    {\n        bounties[_bid].submissions[_sid].status = _status;\n        emit SubmissionStatusUpdated(_bid, _sid);\n    }\n\n    function rejectSubmission(uint _bid, uint _sid)\n\t\tonlyIfSubmissionExists(_bid, _sid)\n\t\tonlyIfBountyStatusNotClosed(_bid)\n\t\tonlyBountyOwner(_bid)\n        public \n    {\n        bounties[_bid].submissions[_sid].status = SubmissionStatus.Rejected;\n        emit SubmissionRejected(_bid, _sid);\n    }\n\n\t\t/* Get item to bounty */\n    function acceptSubmission(uint _bid, uint _sid)\n\t\tonlyIfSubmissionExists(_bid, _sid)\n\t\tonlyIfBountyStatusNotClosed(_bid)\n\t\tonlyBountyOwner(_bid)\n        public \n    {\n        uint length = bounties[_bid].submissionCount;\n        bounties[_bid].status = BountyStatus.Close;\n        for (uint i=0; i < length; i++) {\n            if(i == _sid) {\n                bounties[_bid].submissions[i].status = SubmissionStatus.Approved;\n                emit SubmissionApproved(_bid, _sid);\n\t\t\t} else {\n                bounties[_bid].submissions[i].status = SubmissionStatus.Rejected;\n\t\t\t}\n        }\n        address receiver = bounties[_bid].submissions[_sid].owner;\n        uint amount = bounties[_bid].amount;\n\n        if(funds >= amount) {\n            funds = funds - amount;\n            receiver.transfer(amount);\n\t\t}\n\n\t\t\n\t\t\n        emit MoneyTransfaredAfterApprovedBounty(_bid);\n    }\n\n\t/* Add submission to bounty */\n    function addSubmissionToBounty(uint _bid, string _description)\n\t\tonlyIfBountyExists(_bid)\n        public \n    {\n        uint index = bounties[_bid].submissionCount;\n        bounties[_bid].submissions[index] = Submission({owner: msg.sender, sid: index, description: _description, status: SubmissionStatus.UnderReview});\n        bounties[_bid].submissionCount = index + 1;\n        emit NewSubmissionAddedToBounty(_bid);\n    }\n\n\t/* Get bounties Count */\n    function getSubmissionStatus(uint _bid, uint _sid) public view returns (SubmissionStatus status) {\n        status = bounties[_bid].submissions[_sid].status;\n        return (status);\n    }\n\n\t/* Get bounties Count */\n    function getSubmissionCount(uint _bid) public view returns (uint count) {\n        count = bounties[_bid].submissionCount;\n        return (count);\n    }\n\n    /* Get bounty info */\n    function getSubmission(uint _bid, uint _sid) public view returns (address owner, uint sid, string description, SubmissionStatus status) {\n        owner = bounties[_bid].submissions[_sid].owner;\n        sid = bounties[_bid].submissions[_sid].sid;\n        description = bounties[_bid].submissions[_sid].description;\n        status = bounties[_bid].submissions[_sid].status;\n        return (owner, sid, description, status);\n    }\n}",
  "sourcePath": "/Users/miha/Library/Mobile Documents/com~apple~CloudDocs/Documents/daps/final-project/bounty-dApp/contracts/Bounty.sol",
  "compiler": {
    "name": "solc",
    "version": "0.4.24+commit.e67f0147.Emscripten.clang"
  },
  "schemaVersion": "2.0.1",
  "updatedAt": "2018-08-22T19:53:25.768Z"
}